{
  "_format": "hh-sol-artifact-1",
  "contractName": "CrowdFunding",
  "sourceName": "contracts/CrowdFunding.sol",
  "abi": [
    {
      "inputs": [
        {
          "internalType": "uint256",
          "name": "",
          "type": "uint256"
        }
      ],
      "name": "campaigns",
      "outputs": [
        {
          "internalType": "address",
          "name": "owner",
          "type": "address"
        },
        {
          "internalType": "string",
          "name": "title",
          "type": "string"
        },
        {
          "internalType": "string",
          "name": "description",
          "type": "string"
        },
        {
          "internalType": "uint256",
          "name": "target",
          "type": "uint256"
        },
        {
          "internalType": "uint256",
          "name": "deadline",
          "type": "uint256"
        },
        {
          "internalType": "uint256",
          "name": "amountCollected",
          "type": "uint256"
        },
        {
          "internalType": "string",
          "name": "image",
          "type": "string"
        }
      ],
      "stateMutability": "view",
      "type": "function"
    },
    {
      "inputs": [
        {
          "internalType": "address",
          "name": "_owner",
          "type": "address"
        },
        {
          "internalType": "string",
          "name": "_title",
          "type": "string"
        },
        {
          "internalType": "string",
          "name": "_description",
          "type": "string"
        },
        {
          "internalType": "uint256",
          "name": "_target",
          "type": "uint256"
        },
        {
          "internalType": "uint256",
          "name": "_deadline",
          "type": "uint256"
        },
        {
          "internalType": "string",
          "name": "_image",
          "type": "string"
        }
      ],
      "name": "createCampaign",
      "outputs": [
        {
          "internalType": "uint256",
          "name": "",
          "type": "uint256"
        }
      ],
      "stateMutability": "nonpayable",
      "type": "function"
    },
    {
      "inputs": [
        {
          "internalType": "uint256",
          "name": "_id",
          "type": "uint256"
        }
      ],
      "name": "deleteCampaign",
      "outputs": [],
      "stateMutability": "nonpayable",
      "type": "function"
    },
    {
      "inputs": [
        {
          "internalType": "uint256",
          "name": "_id",
          "type": "uint256"
        }
      ],
      "name": "donateToCampaign",
      "outputs": [],
      "stateMutability": "payable",
      "type": "function"
    },
    {
      "inputs": [],
      "name": "getCampaigns",
      "outputs": [
        {
          "components": [
            {
              "internalType": "address",
              "name": "owner",
              "type": "address"
            },
            {
              "internalType": "string",
              "name": "title",
              "type": "string"
            },
            {
              "internalType": "string",
              "name": "description",
              "type": "string"
            },
            {
              "internalType": "uint256",
              "name": "target",
              "type": "uint256"
            },
            {
              "internalType": "uint256",
              "name": "deadline",
              "type": "uint256"
            },
            {
              "internalType": "uint256",
              "name": "amountCollected",
              "type": "uint256"
            },
            {
              "internalType": "string",
              "name": "image",
              "type": "string"
            },
            {
              "internalType": "address[]",
              "name": "donators",
              "type": "address[]"
            },
            {
              "internalType": "uint256[]",
              "name": "donations",
              "type": "uint256[]"
            }
          ],
          "internalType": "struct CrowdFunding.Campaign[]",
          "name": "",
          "type": "tuple[]"
        }
      ],
      "stateMutability": "view",
      "type": "function"
    },
    {
      "inputs": [
        {
          "internalType": "uint256",
          "name": "_id",
          "type": "uint256"
        }
      ],
      "name": "getDonators",
      "outputs": [
        {
          "internalType": "address[]",
          "name": "",
          "type": "address[]"
        },
        {
          "internalType": "uint256[]",
          "name": "",
          "type": "uint256[]"
        }
      ],
      "stateMutability": "view",
      "type": "function"
    },
    {
      "inputs": [],
      "name": "numberOfCampaigns",
      "outputs": [
        {
          "internalType": "uint256",
          "name": "",
          "type": "uint256"
        }
      ],
      "stateMutability": "view",
      "type": "function"
    }
  ],
  "bytecode": "0x6080604052600060015534801561001557600080fd5b506110fa806100256000396000f3fe6080604052600436106100705760003560e01c806342a4fda81161004e57806342a4fda8146100ff57806375970193146101145780639943e3a114610134578063a6b036331461015457600080fd5b806307ca140d146100755780630fa91fa91461009e578063141961bc146100cc575b600080fd5b34801561008157600080fd5b5061008b60015481565b6040519081526020015b60405180910390f35b3480156100aa57600080fd5b506100be6100b9366004610ae6565b610176565b604051610095929190610aff565b3480156100d857600080fd5b506100ec6100e7366004610ae6565b610245565b6040516100959796959493929190610bc9565b61011261010d366004610ae6565b610422565b005b34801561012057600080fd5b5061011261012f366004610ae6565b6104e4565b34801561014057600080fd5b5061008b61014f366004610cd6565b6105db565b34801561016057600080fd5b506101696106c9565b6040516100959190610e03565b600081815260208181526040918290206007810180548451818502810185019095528085526060948594929360080192909184918301828280156101e357602002820191906000526020600020905b81546001600160a01b031681526001909101906020018083116101c5575b505050505091508080548060200260200160405190810160405280929190818152602001828054801561023557602002820191906000526020600020905b815481526020019060010190808311610221575b5050505050905091509150915091565b600060208190529081526040902080546001820180546001600160a01b03909216929161027190610f10565b80601f016020809104026020016040519081016040528092919081815260200182805461029d90610f10565b80156102ea5780601f106102bf576101008083540402835291602001916102ea565b820191906000526020600020905b8154815290600101906020018083116102cd57829003601f168201915b5050505050908060020180546102ff90610f10565b80601f016020809104026020016040519081016040528092919081815260200182805461032b90610f10565b80156103785780601f1061034d57610100808354040283529160200191610378565b820191906000526020600020905b81548152906001019060200180831161035b57829003601f168201915b50505050509080600301549080600401549080600501549080600601805461039f90610f10565b80601f01602080910402602001604051908101604052809291908181526020018280546103cb90610f10565b80156104185780601f106103ed57610100808354040283529160200191610418565b820191906000526020600020905b8154815290600101906020018083116103fb57829003601f168201915b5050505050905087565b600081815260208181526040808320600781018054600180820183559186528486200180546001600160a01b0319163317905560088201805491820181558552928420349301839055805491519293909290916001600160a01b03169084908381818185875af1925050503d80600081146104b9576040519150601f19603f3d011682016040523d82523d6000602084013e6104be565b606091505b5050905080156104de578282600501546104d89190610f5a565b60058301555b50505050565b600081815260208190526040902080546001600160a01b0316331461055f5760405162461bcd60e51b815260206004820152602660248201527f4f6e6c7920746865206f776e65722063616e2064656c6574652074686520636160448201526536b830b4b3b760d11b60648201526084015b60405180910390fd5b600082815260208190526040812080546001600160a01b0319168155906105896001830182610a76565b610597600283016000610a76565b6003820160009055600482016000905560058201600090556006820160006105bf9190610a76565b6105cd600783016000610ab3565b6104de600883016000610ab3565b60015460009081526020819052604081206004810154421161063f5760405162461bcd60e51b815260206004820152601e60248201527f446561646c696e65206d75737420626520696e207468652066757475726500006044820152606401610556565b80546001600160a01b0319166001600160a01b038916178155600181016106668882610fc2565b50600281016106758782610fc2565b50600381018590556004810184905560006005820155600681016106998482610fc2565b50600180549060006106aa83611082565b9190505550600180546106bd919061109b565b98975050505050505050565b6060600060015467ffffffffffffffff8111156106e8576106e8610c33565b60405190808252806020026020018201604052801561077157816020015b61075e60405180610120016040528060006001600160a01b0316815260200160608152602001606081526020016000815260200160008152602001600081526020016060815260200160608152602001606081525090565b8152602001906001900390816107065790505b50905060005b600154811015610a7057600081815260208181526040918290208251610120810190935280546001600160a01b03168352600181018054919392849290840191906107c190610f10565b80601f01602080910402602001604051908101604052809291908181526020018280546107ed90610f10565b801561083a5780601f1061080f5761010080835404028352916020019161083a565b820191906000526020600020905b81548152906001019060200180831161081d57829003601f168201915b5050505050815260200160028201805461085390610f10565b80601f016020809104026020016040519081016040528092919081815260200182805461087f90610f10565b80156108cc5780601f106108a1576101008083540402835291602001916108cc565b820191906000526020600020905b8154815290600101906020018083116108af57829003601f168201915b5050505050815260200160038201548152602001600482015481526020016005820154815260200160068201805461090390610f10565b80601f016020809104026020016040519081016040528092919081815260200182805461092f90610f10565b801561097c5780601f106109515761010080835404028352916020019161097c565b820191906000526020600020905b81548152906001019060200180831161095f57829003601f168201915b50505050508152602001600782018054806020026020016040519081016040528092919081815260200182805480156109de57602002820191906000526020600020905b81546001600160a01b031681526001909101906020018083116109c0575b5050505050815260200160088201805480602002602001604051908101604052809291908181526020018280548015610a3657602002820191906000526020600020905b815481526020019060010190808311610a22575b505050505081525050838381518110610a5157610a516110ae565b6020026020010181905250508080610a6890611082565b915050610777565b50919050565b508054610a8290610f10565b6000825580601f10610a92575050565b601f016020900490600052602060002090810190610ab09190610acd565b50565b5080546000825590600052602060002090810190610ab091905b5b80821115610ae25760008155600101610ace565b5090565b600060208284031215610af857600080fd5b5035919050565b604080825283519082018190526000906020906060840190828701845b82811015610b415781516001600160a01b031684529284019290840190600101610b1c565b5050508381038285015284518082528583019183019060005b81811015610b7657835183529284019291840191600101610b5a565b5090979650505050505050565b6000815180845260005b81811015610ba957602081850181015186830182015201610b8d565b506000602082860101526020601f19601f83011685010191505092915050565b6001600160a01b038816815260e060208201819052600090610bed90830189610b83565b8281036040840152610bff8189610b83565b90508660608401528560808401528460a084015282810360c0840152610c258185610b83565b9a9950505050505050505050565b634e487b7160e01b600052604160045260246000fd5b600082601f830112610c5a57600080fd5b813567ffffffffffffffff80821115610c7557610c75610c33565b604051601f8301601f19908116603f01168101908282118183101715610c9d57610c9d610c33565b81604052838152866020858801011115610cb657600080fd5b836020870160208301376000602085830101528094505050505092915050565b60008060008060008060c08789031215610cef57600080fd5b86356001600160a01b0381168114610d0657600080fd5b9550602087013567ffffffffffffffff80821115610d2357600080fd5b610d2f8a838b01610c49565b96506040890135915080821115610d4557600080fd5b610d518a838b01610c49565b9550606089013594506080890135935060a0890135915080821115610d7557600080fd5b50610d8289828a01610c49565b9150509295509295509295565b600081518084526020808501945080840160005b83811015610dc85781516001600160a01b031687529582019590820190600101610da3565b509495945050505050565b600081518084526020808501945080840160005b83811015610dc857815187529582019590820190600101610de7565b60006020808301818452808551808352604092508286019150828160051b87010184880160005b83811015610f0257888303603f19018552815180516001600160a01b0316845261012088820151818a870152610e6282870182610b83565b9150508782015185820389870152610e7a8282610b83565b606084810151908801526080808501519088015260a0808501519088015260c080850151888303828a01529193509150610eb48382610b83565b9250505060e08083015186830382880152610ecf8382610d8f565b925050506101008083015192508582038187015250610eee8183610dd3565b968901969450505090860190600101610e2a565b509098975050505050505050565b600181811c90821680610f2457607f821691505b602082108103610a7057634e487b7160e01b600052602260045260246000fd5b634e487b7160e01b600052601160045260246000fd5b80820180821115610f6d57610f6d610f44565b92915050565b601f821115610fbd57600081815260208120601f850160051c81016020861015610f9a5750805b601f850160051c820191505b81811015610fb957828155600101610fa6565b5050505b505050565b815167ffffffffffffffff811115610fdc57610fdc610c33565b610ff081610fea8454610f10565b84610f73565b602080601f831160018114611025576000841561100d5750858301515b600019600386901b1c1916600185901b178555610fb9565b600085815260208120601f198616915b8281101561105457888601518255948401946001909101908401611035565b50858210156110725787850151600019600388901b60f8161c191681555b5050505050600190811b01905550565b60006001820161109457611094610f44565b5060010190565b81810381811115610f6d57610f6d610f44565b634e487b7160e01b600052603260045260246000fdfea2646970667358221220a92ed8d200e5c4c949f54e2db521beda788aca92d00602fa2bc5d76df5a987db64736f6c63430008110033",
  "linkReferences": {},
  "deployedLinkReferences": {}
}